S00D0000526F626F742E7372656311
S11300000C942A000C9491040C94BA040C94E30408
S11300100C9447000C9447000C9430040C94470053
S11300200C9447000C9447000C94BC080C944700B3
S11300300C9447000C9447000C9447000C94470020
S11300400C9447000C9447000C9447000C94470010
S11300500C94470011241FBECFE5D8E0DEBFCDBF0E
S113006010E0A0E6B0E0E4E3F6E102C005900D92F2
S1130070A839B107D9F720E0A8E9B0E001C01D9282
S1130080A03CB207E1F70E9454040C94180B0C94A2
S1130090000004B606FE0AC010929C0084B78F7B51
S11300A084BF82E890E00E94A70708956CB57DB5EF
S11300B080E090E00E94840926E933E44BE05DE3AC
S11300C00E94120A20E030E040E85EE30E94120A37
S11300D00E94550970939A006093990081E00E94F0
S11300E0D20781E080939C0084B7806484BF1DBCE8
S11300F01CBC0895CF93DF9300D01F92CDB7DEB719
S113010019821A821B8281E08A83BE016F5F7F4F4E
S113011086E390E00E940C050E94BB0180E890E019
S11301200E94590482E890E00E94EC0689E490E081
S11301300E948C040E94760342E461E081E00E9404
S11301405A0378940F900F900F90DF91CF910895F8
S113015041E064E086E390E00E94290585E38A9506
S1130160F1F7000040E064E086E390E00E94290596
S113017080919C008823E1F3089580919800813058
S113018029F1C8F0823009F44FC077C09E01ADEC6C
S1130190BCEC0E94B50A9695879596958795682F2D
S11301A082E00E9421028FE39CE90197F1F700C0ED
S11301B00000219702C0C4EFD1E0209739F781E015
S11301C00E94230381E08093980057C00E94A800F6
S11301D04091990050919A0026E061E081E00E94EC
S11301E0C9038091990090919A008333910538F066
S11301F08EE180939B0081E0809398000FC04E971E
S1130200459738F480E580939B0081E080939800C3
S113021005C010929B0082E08093980060919B003F
S113022082E00E94210229C06CE381E00E94210245
S11302309FEF23EC89E0915020408040E1F700C01B
S1130240000060E081E00E9421029FEF29E688E13E
S1130250915020408040E1F700C000000E94A800B7
S11302608091990090919A004E9720F081E08093BC
S1130270980003C082E0809398008FE39CE9019783
S1130280F1F700C0000079CF0E94BD00EF92FF9209
S11302900F931F93CF93DF93C82FD0E07E01EE0C12
S11302A0FF1C87010C0F1D1F000F111F04571F4F48
S11302B040E0F8016481808191810E942905E80170
S11302C040E06D818A819B810E942905DF91CF9155
S11302D01F910F91FF90EF900895EF92FF920F936B
S11302E01F93CF93DF93C82FD0E07E01EE0CFF1C49
S11302F087010C0F1D1F000F111F04571F4F41E0F2
S1130300F8016481808191810E942905E80140E01F
S11303106D818A819B810E942905DF91CF911F9174
S11303200F91FF90EF900895EF92FF920F931F9318
S1130330CF93DF93C82FD0E07E01EE0CFF1C870122
S11303400C0F1D1F000F111F04571F4F40E0F80131
S11303506481808191810E942905E80141E06D81D9
S11303608A819B810E942905DF91CF911F910F9172
S1130370FF90EF900895AF92BF92DF92EF92FF92B9
S11303800F931F93CF93DF9300D01F92CDB7DEB7A7
S113039019821A821B8281E08A8341E650E060E17F
S11303A080E390E00E94DF0581113BC081E690E08C
S11303B00E944F06811137C0D12C25C00D2D10E0AD
S11303C05801AA0CBB1C7501E00EF11EC701880F71
S11303D0991F9C0124573F4F7901F9018581898335
S11303E0BE016F5F7F4F828193810E940C05F701EC
S11303F084818983F701BE016F5F7F4F8081918182
S11304000E940C05D394F1E0FD15C0F680E28983C7
S1130410BE016F5F7F4F80E390E00E940C0580E097
S113042003C083E001C083E00F900F900F90DF9131
S1130430CF911F910F91FF90EF90DF90BF90AF90FD
S11304400895CF9390919D00961305C090916000FC
S1130450981709F462C0C62F823071F130F48823F2
S1130460E1F1813009F449C058C08330A1F08430EF
S113047009F053C080E00E94460181E00E944601D9
S113048084E08093600010929D0061E670E080E05B
S11304900E94570642C080E00E946D0181E00E94E4
S11304A06D0183E080936000C0939D0061E670E07D
S11304B08C2F0E94570631C080E00E94940181E095
S11304C00E94940182E080936000C0939D0061E6E5
S11304D070E08C2F0E94570620C080E00E94940197
S11304E081E00E946D0110926000C0939D0061E65E
S11304F070E08C2F0E94570610C080E00E946D01AE
S113050081E00E94940181E080936000C0939D008B
S113051061E670E08C2F0E94570680E0CF91089529
S1130520CF93DF93CBE6D0E041E068858E819F8155
S11305300E94290585E08A95F1F7000040E068856E
S11305408E819F810E9429058FE39FE10197F1F736
S113055000C00000DF91CF9108950F931F93CF93B4
S1130560C82F83E090E023C08C010F5F1F4F41E050
S113057050E0002E02C0440F551F0A94E2F72C2FBE
S113058030E042235323002E02C0559547950A9428
S1130590E2F7FC01EE0FFF1F8E0F9F1FFC01E559D0
S11305A0FF4F6281808191810E942905C8018730B3
S11305B09105D0F20E94900203E010E021C0C8012E
S11305C0039741E050E0082E02C0440F551F0A94DF
S11305D0E2F72C2F30E04223532302C05595479570
S11305E08A95E2F7F801EE0FFF1FE00FF11FE559BE
S11305F0FF4F6281808191810E9429050F5F1F4F07
S113060007301105E0F20E949002CF911F910F91E3
S113061008951F93CF93DF93182FCBE6D0E041E0EA
S11306206A81888199810E94290540E06D818B81CE
S11306309C810E942905812F0E94AD0280E0DF91F8
S1130640CF911F9108951F93CF93DF93182FCBE67B
S1130650D0E040E06A81888199810E94290540E0C8
S11306606D818B819C810E942905812F0E94AD029E
S113067080E0DF91CF911F910895CF93DF9300D055
S1130680CDB7DEB790E8998390EC9A83E82FF0E039
S1130690319781E090E08C0F9D1FE80FF91F808156
S11306A0860F81500E94230380E00F900F90DF910A
S11306B0CF9108951F93CF93DF93142F0E943D038E
S11306C0CBE6D0E041E06A81888199810E942905C6
S11306D040E06D818B819C810E942905812F0E94BD
S11306E0AD0280E0DF91CF911F9108950F931F9386
S11306F0CF93DF9300D01F92CDB7DEB72FEF89EFF2
S113070090E0215080409040E1F700C0000081E07B
S11307108A831B8200E010E012C0F801EE0FFF1F75
S1130720E00FF11FE559FF4F82818983BE016F5F9E
S11307307F4F808191810E940C050F5F1F4F07300E
S1130740110558F383E30E94230382E30E942303E9
S113075088E20E9423038CE00E94230381E00E942C
S1130760230380E00F900F900F90DF91CF911F91A2
S11307700F910895CF93DF93EA010E943D0303C0D4
S113078021960E94090388818111FACFDF91CF91CC
S113079008958F929F92AF92BF92CF92DF92EF9281
S11307A0FF920F931F93CF93DF93CDB7DEB7982EAD
S11307B0862ECA01ADB6BEB6E22EF12C2DB73EB7D9
S11307C02E193F090FB6F8943EBF0FBE2DBF2F5F01
S11307D03F4F69014AE0B9010E94E30A00E010E0DA
S11307E005C080E20E9409030F5F1F4F0E151F050D
S11307F0C0F3A601682D892D0E94BA0380E00FB6CC
S1130800F894BEBE0FBEADBEDF91CF911F910F9184
S1130810FF90EF90DF90CF90BF90AF909F908F901C
S1130820089580919E0081110AC01DBC1CBC0E94C9
S1130830910881E080939E0010929F000EC080E496
S11308400E94910886B597B59093A1008093A0006B
S113085010929E0081E080939F0080E288BF0895FB
S11308601F920F920FB60F9211242F933F934F9321
S11308705F936F937F938F939F93AF93BF93EF9304
S1130880FF930E941104FF91EF91BF91AF919F914B
S11308908F917F916F915F914F913F912F910F9025
S11308A00FBE0F901F9018950E947A000E94440179
S11308B0FDCFFC018081823071F48181823021F48A
S11308C084B78F7B84BF03C084B7806484BF8BB735
S11308D080628BBF089585B7807F85BF8081811139
S11308E008C095B78181892B85BF8BB780648BBF86
S11308F0089545B7218190E0880F991F30E0B90130
S113090002C0660F771F8A95E2F7CB01842B85BF5F
S11309108BB780688BBF08959093BD008093BC0013
S113092008951F920F920FB60F9211242F933F93A5
S11309304F935F936F937F938F939F93AF93BF93E3
S1130940EF93FF93E091BA00F091BB00309709F068
S11309500995FF91EF91BF91AF919F918F917F91F5
S11309606F915F914F913F912F910F900FBE0F9018
S11309701F9018951F920F920FB60F9211242F9368
S11309803F934F935F936F937F938F939F93AF9313
S1130990BF93EF93FF93E091BE00F091BF003097B7
S11309A009F00995FF91EF91BF91AF919F918F91BC
S11309B07F916F915F914F913F912F910F900FBE57
S11309C00F901F9018951F920F920FB60F9211243B
S11309D02F933F934F935F936F937F938F939F9343
S11309E0AF93BF93EF93FF93E091BC00F091BD00F0
S11309F0309709F00995FF91EF91BF91AF919F91C5
S1130A008F917F916F915F914F913F912F910F90B3
S1130A100FBE0F901F901895DC01FB01818181307E
S1130A2041F4808111969C911197892B11968C9396
S1130A3008958281813021F480819C91892B8C934B
S1130A409081909511968C911197982311969C936F
S1130A500895442329F0FC012281622B62830895C6
S1130A606095FC0122816223628308958091A7002E
S1130A7081110AC040E06091AF008091A90090917B
S1130A80AA000E94290508958091A400811110C034
S1130A9040E06091AF008091A9009091AA000E946B
S1130AA029058091A70083BD81E08093A400089567
S1130AB041E06091AF008091A9009091AA000E944A
S1130AC029058091A700819583BD1092A400089503
S1130AD08091A5009091A600892B61F18091A300DB
S1130AE0811113C040E06091B2008091AB009091FD
S1130AF0AC000E9429058091A5009091A6009BBDA1
S1130B008ABD81E08093A300089541E06091B20022
S1130B108091AB009091AC000E9429052091A50022
S1130B203091A6008FEF9FE0821B930B9BBD8ABD83
S1130B301092A30008958091A800811110C040E094
S1130B406091B5008091AD009091AE000E9429059E
S1130B5040E060E280E390E00E94290508958091DE
S1130B60A200811116C040E06091B5008091AD00F3
S1130B709091AE000E94290540E060E280E390E09D
S1130B800E9429058091A8008CBF81E08093A20077
S1130B90089541E06091B5008091AD009091AE0060
S1130BA00E94290541E060E280E390E00E9429056B
S1130BB08091A80081958CBF1092A2000895FF92A5
S1130BC00F931F93CF93DF934115510509F45EC032
S1130BD0EA01F62E8C018FEF9FE0A8E0B0E0888355
S1130BE09983AA83BB83CA010E94EF079885911158
S1130BF01AC0E5EBF0E081E08183F0821282BF014C
S1130C00C8010E940C051093AE000093AD006BE97F
S1130C1075E081E00E9499086BE975E089850E947E
S1130C20990880E036C09130A9F4E2EBF0E081E06D
S1130C308183F0821282BF01C8010E940C051093C7
S1130C40AC000093AB0068E675E089850E949908C2
S1130C5080E01FC09230E1F4EFEAF0E081E08183AC
S1130C60F0821282BF01C8010E940C051093AA00F1
S1130C700093A90066E375E080E40E94990866E3A6
S1130C8075E089850E94990880E003C081E001C075
S1130C9082E0DF91CF911F910F91FF90089500970B
S1130CA021F00E94A70780E0089581E008958F92C3
S1130CB09F92AF92BF92CF92DF92EF92FF921F93D7
S1130CC0CF93DF936115710509F471C0EB01182FFF
S1130CD088850E94D20781116CC0612FCE010E94C9
S1130CE00307811168C0CE010E94A707811165C066
S1130CF08885813041F588819981AA81BB814C0125
S1130D005D012FE09222AA24BB24612F70E080E0D1
S1130D1090E00E94860920E030E048EC52E40E9412
S1130D20120A6B017C01C501B4010E948409A70168
S1130D3096010E94E3080E9455097093A6006093EF
S1130D40A50080E03DC0811118C0612F70E080E0F3
S1130D5090E00E94860920E030E048EC52E40E94D2
S1130D60E30820E030E04FE753E40E94120A0E94B7
S1130D7055096093A80080E023C0823001F5612FFB
S1130D8070E080E090E00E94860920E030E048ECCA
S1130D9052E40E94E30820E030E04FE753E40E946D
S1130DA0120A0E9455096093A70080E009C081E0FF
S1130DB007C082E005C082E003C082E001C082E097
S1130DC0DF91CF911F91FF90EF90DF90CF90BF9074
S1130DD0AF909F908F900895009789F0FC018085D3
S1130DE0811102C013BE0895823019F415BC80E04D
S1130DF00895813031F41FBC1EBC80E0089581E069
S1130E00089582E00895CF92DF92EF92FF920F93BC
S1130E101F93CF93DF938C01C62F009709F48BC0E7
S1130E20FC018085811108C0962F64E670E00E9461
S1130E307F0A6CBF80E082C0823049F4962F80E044
S1130E4064E670E00E947F0A63BD80E077C0813071
S1130E5009F073C08FEF9FE097BD86BDF8018681CE
S1130E608F3FB9F580819181A281B381BC01CD010D
S1130E707F70882799270F2EF4E6CF2ED12CE12CF2
S1130E80F12CF02DA70196010E94930AD0E0C29F95
S1130E90C001C39F900DD29F900D11249BBD8ABDAC
S1130EA0F80180819181A281B381BC01CD017F7061
S1130EB088279927A70196010E94930AC29FC0011F
S1130EC0C39F900DD29F900D112499BD88BD80E0E1
S1130ED035C08430C1F4F80180819181A281B3814D
S1130EE09C01AD013F7044275527A62FB0E00E9416
S1130EF0C40A24E630E040E050E00E94930A39BD81
S1130F0028BD80E01BC0F80180819181A281B3815A
S1130F109C01AD013F7044275527A62FB0E00E94E5
S1130F20C40A24E630E040E050E00E94930A3BBD4E
S1130F302ABD80E003C081E001C080E0DF91CF9151
S1130F401F910F91FF90EF90DF90CF90089500973D
S1130F5029F1FC012085211109C023B7287F23BF73
S1130F6023B78781822B83BF80E00895223051F418
S1130F7025B5287F25BD25B5FC018781822B85BD3C
S1130F8080E00895213061F42EB5287F2EBD2EB562
S1130F90FC018781822B8EBD80E0089581E0089555
S1130FA082E00895811107C083B7887F83BF83B728
S1130FB083BF80E00895823039F485B5887F85BD8C
S1130FC085B585BD80E00895813039F48EB5887F7C
S1130FD08EBD8EB58EBD80E0089582E00895FC013B
S1130FE0892B09F498C08085813009F06DC0808117
S1130FF09181A281B38194FF33C0AA27BB278F3F7D
S113100020E19207A105B10529F481E08FBD88E0B4
S11310108EBD1FC08F3F21E19207A105B10529F4C0
S113102082E08FBD88E08EBD14C08F3F23E192071C
S1131030A105B10529F483E08FBD88E08EBD09C008
S11310408F3F9F41A105B10521F482E08FBD88E166
S11310508EBD8185882389F099B7892B89BF0DC0FE
S113106095FF05C082E08FBD80E18EBD06C096FF6E
S113107004C081E08FBD80E18EBD26812F3FC1F485
S11310802FB59481892F90E0AC01002456954795A3
S11310900794569547950794542F402D8295929521
S11310A0907F9827807F9827842B822B8FBD2BC01D
S11310B03FB59481892F90E002C0880F991F2A952B
S11310C0E2F7832B8FBD1FC0882311F0823029F5EE
S11310D081110CC083B7877883BF93B72481828141
S11310E0822B892B83BF85818CBF0DC0823059F43C
S11310F085B5877885BD95B524818281822B892B1E
S113110085BD858183BD8185882349F099B7892B65
S113111089BF80E0089581E0089582E0089580E029
S113112008959EB59F7B9EBD9EB5892B8EBD80E0A4
S1131130089561157105E1F08830E1F038F48230EA
S113114089F08430B9F0813059F414C0803291F0C0
S113115018F4803179F004C0803461F0803851F0A3
S113116082E008957093B9006093B80080E0089518
S113117081E0089580E008951F920F920FB60F92B8
S113118011242F933F934F935F936F937F938F9388
S11311909F93AF93BF93EF93FF93E091B800F091C7
S11311A0B9000995FF91EF91BF91AF919F918F91F4
S11311B07F916F915F914F913F912F910F900FBE4F
S11311C00F901F9018950E94F7080C94D8090E945C
S11311D0D10958F00E94CA0940F029F45F3F29F070
S11311E00C94C10951110C940C0A0C94C7090E9467
S11311F0E90968F39923B1F3552391F3951B550B32
S1131200BB27AA2762177307840738F09F5F5F4FD5
S1131210220F331F441FAA1FA9F335D00E2E3AF014
S1131220E0E832D091505040E695001CCAF72BD02C
S1131230FE2F29D0660F771F881FBB1F261737077D
S11312404807AB07B0E809F0BB0B802DBF01FF27AF
S113125093585F4F3AF09E3F510578F00C94C109C2
S11312600C940C0A5F3FE4F3983ED4F3869577958B
S11312706795B795F7959F5FC9F7880F911D969568
S1131280879597F90895E1E0660F771F881FBB1FC4
S1131290621773078407BA0720F0621B730B840B71
S11312A0BA0BEE1F88F7E09508950E94F10988F0C3
S11312B09F5798F0B92F9927B751B0F0E1F0660F16
S11312C0771F881F991F1AF0BA95C9F714C0B13057
S11312D091F00E940B0AB1E008950C940B0A672F59
S11312E0782F8827B85F39F0B93FCCF38695779586
S11312F06795B395D9F73EF490958095709561956F
S11313007F4F8F4F9F4F0895E89409C097FB3EF499
S113131090958095709561957F4F8F4F9F4F99233E
S1131320A9F0F92F96E9BB279395F69587957795BC
S11313306795B795F111F8CFFAF4BB0F11F460FF7C
S11313401BC06F5F7F4F8F4F9F4F16C0882311F0D4
S113135096E911C0772321F09EE8872F762F05C0E8
S1131360662371F096E8862F70E060E02AF09A9583
S1131370660F771F881FDAF7880F9695879597F978
S1131380089597F99F6780E870E060E008959FEF03
S113139080EC089500240A94161617061806090608
S11313A0089500240A9412161306140605060895D7
S11313B0092E0394000C11F4882352F0BB0F40F45F
S11313C0BF2B11F460FF04C06F5F7F4F8F4F9F4F9F
S11313D0089557FD9058440F551F59F05F3F71F021
S11313E04795880F97FB991F61F09F3F79F0879588
S11313F00895121613061406551FF2CF4695F1DF11
S113140008C0161617061806991FF1CF86957105A0
S1131410610508940895E894BB2766277727CB01D4
S113142097F908950E94250A0C94D8090E94CA09C4
S113143038F00E94D10920F0952311F00C94C109D1
S11314400C94C70911240C940C0A0E94E90970F346
S1131450959FC1F3950F50E0551F629FF001729F55
S1131460BB27F00DB11D639FAA27F00DB11DAA1F64
S1131470649F6627B00DA11D661F829F2227B00DB1
S1131480A11D621F739FB00DA11D621F839FA00D3C
S1131490611D221F749F3327A00D611D231F849F8C
S11314A0600D211D822F762F6A2F11249F575040E3
S11314B09AF0F1F088234AF0EE0FFF1FBB1F661F5E
S11314C0771F881F91505040A9F79E3F510580F027
S11314D00C94C1090C940C0A5F3FE4F3983ED4F3D6
S11314E0869577956795B795F795E7959F5FC1F7CB
S11314F0FE2B880F911D9695879597F9089597FB74
S1131500072E16F4009407D077FD09D00E94CF0A65
S113151007FC05D03EF4909581959F4F08957095F2
S113152061957F4F0895A1E21A2EAA1BBB1BFD01F2
S11315300DC0AA1FBB1FEE1FFF1FA217B307E407AE
S1131540F50720F0A21BB30BE40BF50B661F771F06
S1131550881F991F1A9469F76095709580959095E6
S11315609B01AC01BD01CF010895A29FB001B39FBF
S1131570C001A39F700D811D1124911DB29F700D98
S1131580811D1124911D08950E94B50AA59F900DF7
S1131590B49F900DA49F800D911D11240895AA1B42
S11315A0BB1B51E107C0AA1FBB1FA617B70710F04A
S11315B0A61BB70B881F991F5A95A9F7809590957C
S11315C0BC01CD010895BB274A3031F4992322F49C
S11315D0BDE2909581959F4F0C94EF0ABB27FB01C8
S11315E05527AA27880F991FAA1FA41710F0A41B18
S11315F083955051B9F7A05DAA3308F0A95DA19372
S1131600009779F7B111B1931192CB010C94080BA7
S1131610DC01FC01672F71917723E1F7329704C055
S11316207C916D9370836291AE17BF07C8F30895E0
S1071630F894FFCF58
S11316340400000000000000040002390002390024
S11316440439000839001039002039004039008079
S1131654020300000000000000020100300030001A
S10B166404083000300040804E
S9030000FC
