:100000000C942A000C9468040C948F040C94B6048D
:100010000C9447000C9447000C9406040C94470081
:100020000C9447000C9447000C94CD060C944700A8
:100030000C9447000C9447000C9447000C94470024
:100040000C9447000C9447000C9447000C94470014
:100050000C94470011241FBECFE5D8E0DEBFCDBF12
:1000600010E0A0E6B0E0E2ECF5E102C005900D92F0
:10007000A43AB107D9F720E0A4EAB0E001C01D928C
:10008000AD3CB207E1F70E942A040C94DF0A0C94FD
:10009000000004B606FE0AC01092C60084B78F7B2B
:1000A00084BF80E690E00E94B80508956CB57DB5E8
:1000B00080E090E00E944B0926E933E44BE05DE3E9
:1000C0000E94D90920E030E040E85EE30E94D909AF
:1000D0000E941C097093C5006093C40081E00E94D7
:1000E000E30581E08093C60084B7806484BF1DBCB3
:1000F0001CBC08950E9418038AE690E00E942F0419
:1001000080E690E00E94FD0489E490E00E94630490
:100110000E94080287B3826087BB789442E461E062
:1001200081E00E94EC01089588B3826088BB85E37A
:100130008A95F1F7000018BA8FE39CE90197F1F76F
:1001400000C000008091C6008823E1F308958091EB
:10015000A4008130B9F020F0823009F441C069C0B8
:1001600081E08093A4004CE850E061E00E944C02E2
:100170002FEF83E294EF215080409040E1F700C0E0
:10018000000057C00E9494004091C4005091C500E7
:1001900026E061E081E00E945B028091C4009091C2
:1001A000C5008333910538F08EE18093A50081E08E
:1001B0008093A4000FC04E97459738F480E5809354
:1001C000A50081E08093A40005C01092A50082E004
:1001D0008093A4006091A50082E00E94780329C06A
:1001E0006CE381E00E9478032FEF83EC99E02150CB
:1001F00080409040E1F700C0000060E081E00E9494
:1002000078032FEF89E698E1215080409040E1F794
:1002100000C000000E9494008091C4009091C5002D
:100220004E9720F081E08093A40003C082E0809389
:10023000A4008FE39CE90197F1F700C0000087CF8D
:100240000E94A700CF93DF93CCE6D0E041E0688521
:100250008E819F810E94F00485E08A95F1F700006D
:1002600040E068858E819F810E94F0048FE39FE1CA
:100270000197F1F700C00000DF91CF9108950F932F
:100280001F93CF93C82F83E090E023C08C010F5FB2
:100290001F4F41E050E0002E02C0440F551F0A944A
:1002A000E2F72C2F30E042235323002E02C0559555
:1002B00047950A94E2F7FC01EE0FFF1F8E0F9F1F78
:1002C000FC01E459FF4F6281808191810E94F0041A
:1002D000C80187309105D4F20E94220103E010E0AA
:1002E00021C0C801039741E050E0082E02C0440F2E
:1002F000551F0A94E2F72C2F30E04223532302C00B
:10030000559547958A95E2F7F801EE0FFF1FE00F2C
:10031000F11FE459FF4F6281808191810E94F004B6
:100320000F5F1F4F07301105E4F20E942201CF91A9
:100330001F910F9108951F93CF93DF93182FCCE651
:10034000D0E041E06A81888199810E94F00440E018
:100350006D818B819C810E94F004812F0E943F015E
:1003600080E0DF91CF911F9108951F93CF93DF938A
:10037000182FCCE6D0E040E06A81888199810E9404
:10038000F00440E06D818B819C810E94F004812FFC
:100390000E943F0180E0DF91CF911F910895CF939C
:1003A000DF9300D0CDB7DEB790E8998390EC9A83C5
:1003B000E82FF0E0319781E090E08C0F9D1FE80F6F
:1003C000F91F8081860F81500E94B50180E00F9057
:1003D0000F90DF91CF9108951F93CF93DF93142F48
:1003E0000E94CF01CCE6D0E041E06A81888199810A
:1003F0000E94F00440E06D818B819C810E94F0049A
:10040000812F0E943F0180E0DF91CF911F910895DD
:100410000F931F93CF93DF9300D01F92CDB7DEB71A
:100420002FEF89EF90E0215080409040E1F700C02D
:10043000000081E08A831B8200E010E012C0F80116
:10044000EE0FFF1FE00FF11FE459FF4F82818983F8
:10045000BE016F5F7F4F808191810E94DD040F5F3D
:100460001F4F073011055CF383E30E94B50182E35F
:100470000E94B50188E20E94B5018CE00E94B5019E
:1004800081E00E94B50180E00F900F900F90DF9106
:10049000CF911F910F910895CF93DF93EA010E94AE
:1004A000CF0103C021960E949B0188818111FACF60
:1004B000DF91CF9108958F929F92AF92BF92CF928A
:1004C000DF92EF92FF920F931F93CF93DF93CDB7FD
:1004D000DEB7982E862ECA01ADB6BEB6E22EF12C3E
:1004E0002DB73EB72E193F090FB6F8943EBF0FBE89
:1004F0002DBF2F5F3F4F69014AE0B9010E94AA0A50
:1005000000E010E005C080E20E949B010F5F1F4FDA
:100510000E151F05C0F3A601682D892D0E944C02FF
:1005200080E00FB6F894BEBE0FBEADBEDF91CF9196
:100530001F910F91FF90EF90DF90CF90BF90AF9001
:100540009F908F900895EF92FF920F931F93CF93F8
:10055000DF93C82FD0E07E01EE0CFF1C87010C0F4B
:100560001D1F000F111F09561F4F40E0F801648145
:10057000808191810E94F004E80140E06D818A81D0
:100580009B810E94F004DF91CF911F910F91FF900A
:10059000EF900895EF92FF920F931F93CF93DF9305
:1005A000C82FD0E07E01EE0CFF1C87010C0F1D1F31
:1005B000000F111F09561F4F41E0F801648180812F
:1005C00091810E94F004E80140E06D818A819B8165
:1005D0000E94F004DF91CF911F910F91FF90EF9057
:1005E0000895EF92FF920F931F93CF93DF93C82F3D
:1005F000D0E07E01EE0CFF1C87010C0F1D1F000FC9
:10060000111F09561F4F40E0F801648180819181DC
:100610000E94F004E80141E06D818A819B810E9483
:10062000F004DF91CF911F910F91FF90EF9008950B
:10063000AF92BF92DF92EF92FF920F931F93CF93EF
:10064000DF9300D01F92CDB7DEB719821A821B82CA
:1006500081E08A8342E850E060E180E390E00E941C
:100660009D07811135C082E890E00E940D0881113C
:1006700031C0D12C25C00D2D10E05801AA0CBB1C97
:100680007501E00EF11EC701880F991F9C012956C4
:100690003F4F7901F90185818983BE016F5F7F4FEB
:1006A000828193810E94DD04F70184818983F701AF
:1006B000BE016F5F7F4F808191810E94DD04D394E2
:1006C000F1E0FD15C0F681B3806281BB80E003C01C
:1006D00083E001C083E00F900F900F90DF91CF91E6
:1006E0001F910F91FF90EF90DF90BF90AF90089512
:1006F000CF939091A600961305C090918100981712
:1007000009F462C0C62F823071F130F48823E1F120
:10071000813009F449C058C08330A1F0843009F019
:1007200053C080E00E94A30281E00E94A30284E003
:10073000809381001092A60062E870E080E00E9441
:10074000150842C080E00E94CA0281E00E94CA02ED
:1007500083E080938100C093A60062E870E08C2F54
:100760000E94150831C080E00E94F10281E00E94E1
:10077000F10282E080938100C093A60062E870E0FD
:100780008C2F0E94150820C080E00E94F10281E0B9
:100790000E94CA0210928100C093A60062E870E035
:1007A0008C2F0E94150810C080E00E94CA0281E0D0
:1007B0000E94F10281E080938100C093A60062E86C
:1007C00070E08C2F0E94150880E0CF9108958091F1
:1007D000A70081110AC01DBC1CBC0E94A20681E0BA
:1007E0008093A7001092A8000EC080E40E94A20689
:1007F00086B597B59093AA008093A9001092A700A0
:1008000081E08093A80080E288BF08951F920F9234
:100810000FB60F9211242F933F934F935F936F93D3
:100820007F938F939F93AF93BF93EF93FF930E9418
:10083000E703FF91EF91BF91AF919F918F917F91CE
:100840006F915F914F913F912F910F900FBE0F903D
:100850001F9018950E947A000E942001FDCFFC0194
:100860008081823071F48181823021F484B78F7B62
:1008700084BF03C084B7806484BF8BB780628BBFA2
:1008800020C085B7807F85BF8081811108C095B762
:100890008181892B85BF8BB780648BBF12C045B720
:1008A000218190E0880F991F30E0B90102C0660FE6
:1008B000771F8A95E2F7CB01842B85BF8BB78068C1
:1008C0008BBF789408959093CA008093C9000895CF
:1008D0001F920F920FB60F9211242F933F934F93B5
:1008E0005F936F937F938F939F93AF93BF93EF9398
:1008F000FF93E091C700F091C8000995FF91EF9137
:10090000BF91AF919F918F917F916F915F914F9127
:100910003F912F910F900FBE0F901F9018951F922F
:100920000F920FB60F9211242F933F934F935F9323
:100930006F937F938F939F93AF93BF93EF93FF93A7
:10094000E091CB00F091CC000995FF91EF91BF9120
:10095000AF919F918F917F916F915F914F913F9157
:100960002F910F900FBE0F901F9018951F920F920E
:100970000FB60F9211242F933F934F935F936F9372
:100980007F938F939F93AF93BF93EF93FF93E091E8
:10099000C900F091CA000995FF91EF91BF91AF9105
:1009A0009F918F917F916F915F914F913F912F9187
:1009B0000F900FBE0F901F901895FC01DB01119650
:1009C0008C911197813029F48C919181892B8183AD
:1009D0000895DB019C9190958181982391830895DE
:1009E000442329F0FC012281622B628308956095E3
:1009F000FC012281622362830895009789F0FC0143
:100A00008085811102C013BE0895823019F415BC8F
:100A100080E00895813031F41FBC1EBC80E0089551
:100A200081E0089582E00895CF92DF92EF92FF92E5
:100A30000F931F93CF93DF938C01C62F009709F478
:100A40008BC0FC018085811108C0962F64E670E0A0
:100A50000E94460A6CBF80E082C0823049F4962F23
:100A600080E064E670E00E94460A63BD80E077C0E3
:100A7000813009F073C08FEF9FE097BD86BDF8010C
:100A800086818F3FB9F580819181A281B381BC01BC
:100A9000CD017F70882799270F2EF4E6CF2ED12C19
:100AA000E12CF12CF02DA70196010E945A0AD0E00A
:100AB000C29FC001C39F900DD29F900D11249BBD7A
:100AC0008ABDF80180819181A281B381BC01CD01F1
:100AD0007F7088279927A70196010E945A0AC29F12
:100AE000C001C39F900DD29F900D112499BD88BD68
:100AF00080E035C08430C1F4F80180819181A28109
:100B0000B3819C01AD013F7044275527A62FB0E06B
:100B10000E947C0A24E630E040E050E00E945A0A3D
:100B200039BD28BD80E01BC0F80180819181A28180
:100B3000B3819C01AD013F7044275527A62FB0E03B
:100B40000E947C0A24E630E040E050E00E945A0A0D
:100B50003BBD2ABD80E003C081E001C080E0DF91A1
:100B6000CF911F910F91FF90EF90DF90CF9008955C
:100B7000009729F1FC012085211109C023B7287FA6
:100B800023BF23B78781822B83BF80E00895223063
:100B900051F425B5287F25BD25B5FC018781822B21
:100BA00085BD80E00895213061F42EB5287F2EBDEB
:100BB0002EB5FC018781822B8EBD80E0089581E0F7
:100BC000089582E00895811107C083B7887F83BFAD
:100BD00083B783BF80E00895823039F485B5887F7C
:100BE00085BD85B585BD80E00895813039F48EB529
:100BF000887F8EBD8EB58EBD80E0089582E0089519
:100C0000FC01892B09F498C08085813009F06DC002
:100C100080819181A281B38194FF33C0AA27BB2731
:100C20008F3F20E19207A105B10529F481E08FBD36
:100C300088E08EBD1FC08F3F21E19207A105B1055D
:100C400029F482E08FBD88E08EBD14C08F3F23E180
:100C50009207A105B10529F483E08FBD88E08EBD20
:100C600009C08F3F9F41A105B10521F482E08FBDEE
:100C700088E18EBD8185882389F099B7892B89BF4A
:100C80000DC095FF05C082E08FBD80E18EBD06C01E
:100C900096FF04C081E08FBD80E18EBD26812F3F8D
:100CA000C1F42FB59481892F90E0AC0100245695B2
:100CB00047950794569547950794542F402D829554
:100CC0009295907F9827807F9827842B822B8FBDC9
:100CD0002BC03FB59481892F90E002C0880F991FE7
:100CE0002A95E2F7832B8FBD1FC0882311F0823035
:100CF00029F581110CC083B7877883BF93B724810E
:100D00008281822B892B83BF85818CBF0DC082306D
:100D100059F485B5877885BD95B524818281822B6C
:100D2000892B85BD858183BD8185882349F099B74D
:100D3000892B89BF80E0089581E0089582E00895BD
:100D400080E008959EB59F7B9EBD9EB5892B8EBD8C
:100D500080E0089561157105E1F08830E1F038F424
:100D6000823089F08430B9F0813059F414C0803277
:100D700091F018F4803179F004C0803461F080384B
:100D800051F082E008957093AC006093AB0080E076
:100D9000089581E0089580E008951F920F920FB6A4
:100DA0000F9211242F933F934F935F936F937F93F1
:100DB0008F939F93AF93BF93EF93FF93E091AB001B
:100DC000F091AC000995FF91EF91BF91AF919F9188
:100DD0008F917F916F915F914F913F912F910F90E4
:100DE0000FBE0F901F9018958091B20081110AC01C
:100DF00040E06091BA008091B4009091B5000E94EB
:100E0000F00408958091AF00811110C040E060911E
:100E1000BA008091B4009091B5000E94F0048091D6
:100E2000B20083BD81E08093AF00089541E06091FE
:100E3000BA008091B4009091B5000E94F0048091B6
:100E4000B200819583BD1092AF0008958091B000EB
:100E50009091B100892B61F18091AE00811113C096
:100E600040E06091BD008091B6009091B7000E9473
:100E7000F0048091B0009091B1009BBD8ABD81E0EB
:100E80008093AE00089541E06091BD008091B6006E
:100E90009091B7000E94F0042091B0003091B10011
:100EA0008FEF9FE0821B930B9BBD8ABD1092AE001B
:100EB00008958091B300811110C040E06091C0009E
:100EC0008091B8009091B9000E94F00440E060E287
:100ED00080E390E00E94F00408958091AD008111BC
:100EE00016C040E06091C0008091B8009091B900B8
:100EF0000E94F00440E060E280E390E00E94F00491
:100F00008091B3008CBF81E08093AD00089541E0F3
:100F10006091C0008091B8009091B9000E94F004E7
:100F200041E060E280E390E00E94F0048091B30031
:100F300081958CBF1092AD000895FF920F931F937F
:100F4000CF93DF934115510509F45EC0EA01F62EF7
:100F50008C018FEF9FE0A8E0B0E088839983AA839B
:100F6000BB83CA010E940006988591111AC0E0EC6B
:100F7000F0E081E08183F0821282BF01C8010E940B
:100F8000DD041093B9000093B80069E577E081E0D3
:100F90000E94AA0669E577E089850E94AA0680E09A
:100FA00036C09130A9F4EDEBF0E081E08183F0826E
:100FB0001282BF01C8010E94DD041093B7000093A4
:100FC000B60066E277E089850E94AA0680E01FC02D
:100FD0009230E1F4EAEBF0E081E08183F08212826A
:100FE000BF01C8010E94DD041093B5000093B40056
:100FF00064EF76E080E40E94AA0664EF76E08985DB
:101000000E94AA0680E003C081E001C082E0DF9177
:10101000CF911F910F91FF900895009721F00E94AA
:10102000B80580E0089581E008958F929F92AF9275
:10103000BF92CF92DF92EF92FF921F93CF93DF93F5
:101040006115710509F471C0EB01182F88850E94A4
:10105000E30581116CC0612FCE010E94140581113E
:1010600068C0CE010E94B805811165C088858130B5
:1010700041F588819981AA81BB814C015D012FE0F6
:101080009222AA24BB24612F70E080E090E00E94AD
:101090004D0920E030E048EC52E40E94D9096B0190
:1010A0007C01C501B4010E944B09A70196010E9471
:1010B000AA080E941C097093B1006093B00080E000
:1010C0003DC0811118C0612F70E080E090E00E9467
:1010D0004D0920E030E048EC52E40E94AA0820E0EC
:1010E00030E04FE753E40E94D9090E941C09609345
:1010F000B30080E023C0823001F5612F70E080E012
:1011000090E00E944D0920E030E048EC52E40E945B
:10111000AA0820E030E04FE753E40E94D9090E947A
:101120001C096093B20080E009C081E007C082E042
:1011300005C082E003C082E001C082E0DF91CF9170
:101140001F91FF90EF90DF90CF90BF90AF909F9056
:101150008F9008950E94BE080C949F090E949809E0
:1011600058F00E94910940F029F45F3F29F00C9457
:10117000880951110C94D3090C948E090E94B0096E
:1011800068F39923B1F3552391F3951B550BBB27B6
:10119000AA2762177307840738F09F5F5F4F220FFB
:1011A000331F441FAA1FA9F335D00E2E3AF0E0E8F2
:1011B00032D091505040E695001CCAF72BD0FE2F3C
:1011C00029D0660F771F881FBB1F261737074807D0
:1011D000AB07B0E809F0BB0B802DBF01FF27935888
:1011E0005F4F3AF09E3F510578F00C9488090C94BB
:1011F000D3095F3FE4F3983ED4F3869577956795DE
:10120000B795F7959F5FC9F7880F911D96958795BC
:1012100097F90895E1E0660F771F881FBB1F6217DB
:1012200073078407BA0720F0621B730B840BBA0B99
:10123000EE1F88F7E09508950E94B80988F09F573F
:1012400098F0B92F9927B751B0F0E1F0660F771FEA
:10125000881F991F1AF0BA95C9F714C0B13091F0E0
:101260000E94D209B1E008950C94D209672F782F1B
:101270008827B85F39F0B93FCCF3869577956795A5
:10128000B395D9F73EF490958095709561957F4F11
:101290008F4F9F4F0895E89409C097FB3EF49095B7
:1012A0008095709561957F4F8F4F9F4F9923A9F03F
:1012B000F92F96E9BB279395F695879577956795CE
:1012C000B795F111F8CFFAF4BB0F11F460FF1BC012
:1012D0006F5F7F4F8F4F9F4F16C0882311F096E9A5
:1012E00011C0772321F09EE8872F762F05C0662353
:1012F00071F096E8862F70E060E02AF09A95660F0C
:10130000771F881FDAF7880F9695879597F90895C4
:1013100097F99F6780E870E060E008959FEF80ECA8
:10132000089500240A94161617061806090608954B
:1013300000240A9412161306140605060895092EB1
:101340000394000C11F4882352F0BB0F40F4BF2B20
:1013500011F460FF04C06F5F7F4F8F4F9F4F089560
:1013600057FD9058440F551F59F05F3F71F0479556
:10137000880F97FB991F61F09F3F79F0879508953B
:10138000121613061406551FF2CF4695F1DF08C05A
:10139000161617061806991FF1CF86957105610577
:1013A00008940895E894BB2766277727CB0197F91F
:1013B00008950E94EC090C949F090E94910938F04D
:1013C0000E94980920F0952311F00C9488090C9440
:1013D0008E0911240C94D3090E94B00970F3959FD3
:1013E000C1F3950F50E0551F629FF001729FBB271C
:1013F000F00DB11D639FAA27F00DB11DAA1F649FB8
:101400006627B00DA11D661F829F2227B00DA11D6A
:10141000621F739FB00DA11D621F839FA00D611DF0
:10142000221F749F3327A00D611D231F849F600D11
:10143000211D822F762F6A2F11249F5750409AF03A
:10144000F1F088234AF0EE0FFF1FBB1F661F771FC6
:10145000881F91505040A9F79E3F510580F00C9491
:1014600088090C94D3095F3FE4F3983ED4F3869542
:1014700077956795B795F795E7959F5FC1F7FE2B31
:10148000880F911D9695879597F9089597FB072EDC
:1014900016F4009407D077FD09D00E94870A07FC54
:1014A00005D03EF4909581959F4F08957095619574
:1014B0007F4F0895A1E21A2EAA1BBB1BFD010DC090
:1014C000AA1FBB1FEE1FFF1FA217B307E407F507F4
:1014D00020F0A21BB30BE40BF50B661F771F881FD0
:1014E000991F1A9469F760957095809590959B0166
:1014F000AC01BD01CF0108950E949B0AA59F900DEC
:10150000B49F900DA49F800D911D11240895AA1BD6
:10151000BB1B51E107C0AA1FBB1FA617B70710F0DE
:10152000A61BB70B881F991F5A95A9F78095909510
:10153000BC01CD010895A29FB001B39FC001A39F3C
:10154000700D811D1124911DB29F700D811D1124FC
:10155000911D0895BB274A3031F4992322F4BDE24E
:10156000909581959F4F0C94B60ABB27FB01552798
:10157000AA27880F991FAA1FA41710F0A41B8395F0
:101580005051B9F7A05DAA3308F0A95DA193009767
:1015900079F7B111B1931192CB010C94CF0ADC0110
:1015A000FC01672F71917723E1F7329704C07C919A
:1015B0006D9370836291AE17BF07C8F30895F894D6
:0215C000FFCF5B
:1015C200000000000000000201000203390002399D
:1015D2000004390008390010390020390040390070
:1015E20080040000000000000004000245786974D5
:1015F20020526573657400300030000408300030FA
:041602000040800024
:00000001FF
